:020000040800F2
:1000000000280020C9100008E50F0008ED0F0008C7
:10001000F50F0008FD0F00080510000800000000A3
:100020000000000000000000000000000D100008AB
:100030001910000800000000251000083110000809
:100040001111000811110008111100081111000808
:1000500011110008111100081111000811110008F8
:1000600011110008111100081111000811110008E8
:1000700011110008111100081111000811110008D8
:1000800011110008111100081111000811110008C8
:1000900011110008111100081111000811110008B8
:1000A00011110008111100081111000811110008A8
:1000B0003D10000811110008000000001111000897
:1000C00011110008000000000000000011110008DC
:1000D00000000000111100081111000800000000CC
:1000E0001111000811110008111100080000000092
:1000F0000000000000000000000000000000000000
:0C01000000000000000000005FF808F1A3
:10010C0010B5054C237833B9044B13B10448AFF345
:10011C0000800123237010BD84000020000000002B
:10012C008429000808B5034B1BB103490348AFF3FE
:10013C00008008BD00000000880000208429000811
:10014C0080B483B000AF7860374BDB68364A23F459
:10015C007E43D3607B68092B5AD801A252F823F056
:10016C0095010008A3010008B1010008BF010008B7
:10017C00CD010008DB010008E9010008F7010008C7
:10018C00050200080F020008274BDB68264A43F4DF
:10019C000043D36043E0244BDB68234A43F47243AF
:1001AC00D3603CE0204BDB681F4A43F49043D360A0
:1001BC0035E01D4BDB681C4A43F4C043D3602EE092
:1001CC00194BDB68184A43F44853D36027E0164BAD
:1001DC00DB68154A43F41053D36020E0124BDB6804
:1001EC00114A43F48063D36019E00F4BDB680E4A6D
:1001FC0043F47043D36012E00B4B0B4ADB68D360C3
:10020C000DE0094BDB68084A43F40053D36006E069
:10021C00054BDB68044A43F47E43D36000BF00BF48
:10022C000C37BD4680BC70470008014080B483B0D9
:10023C0000AF03460A46FB711346BB71FB79174AA4
:10024C00A2FB0323DB08DAB2154B1A70FA79134BB5
:10025C00A3FB0213D9080B469B000B445B00D31A7B
:10026C00DAB20F4B5A70BB790C4AA2FB0323DB08A2
:10027C00DAB20B4B9A70BA79084BA3FB0213D9086C
:10028C000B469B000B445B00D31ADAB2044BDA70BA
:10029C0000BF0C37BD4680BC704700BFCDCCCCCC6A
:1002AC00A000002080B500AF144BDB68134A43F06C
:1002BC001E03D360124B1B781A46124B9B5C1846DC
:1002CC00FFF73EFF0D4BDB680D4A127811460E4AC4
:1002DC0032F81120D2431146084A0B40D360084B28
:1002EC001B7801335A4203F0030302F0030258BF98
:1002FC005342DAB2024B1A7000BF80BD00080140B5
:10030C00A5000020A00000200400002080B500AF54
:10031C00584B1B78584A127811461846FFF786FF3F
:10032C00564BDB68554A43F4FF5343F01E03D3602E
:10033C00534B1B78022B2AD0022B3FDC002B02D014
:10034C00012B12D03AE04D4BDB684C4A23F0820370
:10035C00D360484B1B78002B2BD1494B01221A70D0
:10036C00484B1A78434B1A7023E0444BDB68434AE2
:10037C0023F48273D3603F4B1B78002B1BD1404B73
:10038C0002221A70404B1A783A4B1A7013E03B4B0E
:10039C00DB683A4A23F40273D360364B1B78002B8C
:1003AC000BD1374B00221A70384B1A78314B1A701C
:1003BC0003E000BF02E000BF00E000BF344B1B783D
:1003CC00022B2AD0022B3FDC002B02D0012B12D0A7
:1003DC003AE02A4BDB68294A23F48263D360264B2C
:1003EC001B78002B2BD12A4B01221A70254B1A7823
:1003FC00214B1A7023E0214BDB68204A23F4026363
:10040C00D3601D4B1B78002B1BD1214B02221A7081
:10041C001D4B1A78184B1A7013E0184BDB68174AEF
:10042C0023F48253D360144B1B78002B0BD1184B45
:10043C0000221A70154B1A780F4B1A7003E000BF8C
:10044C0002E000BF00E000BF0A4B1B78002B05D078
:10045C00084B1B78013BDAB2064B1A70064B1B7823
:10046C00002B05D0044B1B78013BDAB2024B1A70FF
:10047C0000BF80BDAB000020AC000020000C014090
:10048C00AE0000200200002001000020000000202F
:10049C000C00002080B500AF0C4B1B7819460220D5
:1004AC00FFF7C4FE02210A4801F049F9102108485F
:1004BC0001F045F98021064801F041F94FF48061C3
:1004CC00034801F03CF900BF80BD00BFA400002030
:1004DC00000C014080B500AF0C4B1B781946032073
:1004EC00FFF7A4FE08210A4801F029F94021084829
:1004FC0001F025F94FF40071054801F020F94FF493
:10050C008051034801F01BF900BF80BDA4000020FE
:10051C00000C014080B500AF0C4B1B781946042031
:10052C00FFF784FE04210A4801F009F9202108484C
:10053C0001F005F94FF48071054801F000F94FF412
:10054C000061034801F0FBF800BF80BDA40000204F
:10055C00000C014080B500AF284BDB68274A43F400
:10056C00FF5343F01E03D360254B1B785A1C254BBD
:10057C0083FB02135910D317C91A0B469B000B446B
:10058C00D11ACAB21E4B1A701D4B1B78042B24D0E7
:10059C00042B31DC022B02D0032B0FD02CE01A4B96
:1005AC001A781A4B1A704FF47A724FF47A71184801
:1005BC0000F010FC0346174A13601DE0164B1A7826
:1005CC00124B1A704FF47A724FF47A71134800F090
:1005DC0001FC03460F4A13600EE0114B1A780B4BCB
:1005EC001A704FF47A724FF47A710E4800F0F2FBE5
:1005FC000346084A136000BF00BF80BD000C0140D9
:10060C00AD0000206766666600000020A400002094
:10061C00A1040008B000002001000020E104000843
:10062C00020000202105000880B500AF844B1B7828
:10063C00002B2AD1834BDB68824A43F4FF5343F0EF
:10064C001E03D360804B1A78804B1B781344DAB2AC
:10065C007F4B1A707E4B1A787E4B1A707A4B1A7835
:10066C007D4B1A707D4B00221A707D4B01221A7043
:10067C004FF47A724FF47A717A4800F0ABFB034670
:10068C00794A13606E4B01221A70784B1B78022B3F
:10069C002BD0022B38DC002B02D0012B11D033E0F5
:1006AC00002000F051F90346002B28D06E4B1B683C
:1006BC00184600F0F9FBFFF74DFF6C4B01221A7046
:1006CC001DE0002000F040F90346002B03D1674BDE
:1006DC0000221A7015E0002000F050F90346002BA0
:1006EC000FD0624B02221A700BE0002000F02CF9A4
:1006FC000346002B07D15D4B00221A7003E000BFAC
:10070C0002E000BF00E000BF584B5B78022B34D0F6
:10071C00022B41DC002B02D0012B1AD03CE0012033
:10072C0000F012F90346002B31D0514B1B780133EA
:10073C00504A82FB03125111DA178A1A642101FB09
:10074C0002F29A1AD2B24A4B1A70484B01225A70D2
:10075C001DE0012000F0F8F80346002B03D1434BB9
:10076C0000225A7015E0012000F008F90346002B16
:10077C000FD03E4B02225A700BE0012000F0E4F83F
:10078C000346002B07D1394B00225A7003E000BFFF
:10079C0002E000BF00E000BF344B9B78022B3ED040
:1007AC00022B4BDC002B02D0012B24D046E0022084
:1007BC0000F0CAF80346002B3BD0214B1B78042BCE
:1007CC0010D0042B13DC022B02D0032B05D00EE02F
:1007DC00274B1A781E4B1A7009E0254B1A781B4BC5
:1007EC001A7004E0224B1A78174B1A7000BF1F4B7B
:1007FC0001229A701DE0022000F0A6F80346002B9F
:10080C0003D11A4B00229A7015E0022000F0B6F8C2
:10081C000346002B0FD0154B02229A700BE00220DE
:10082C0000F092F80346002B07D1104B00229A706F
:10083C0003E000BF02E000BF00E000BF00BF80BDCE
:10084C00AD000020000C014002000020010000203F
:10085C0000000020AB000020AC000020AE00002007
:10086C000C00002019030008B0000020A800002094
:10087C00A40000201F85EB5190B583B000AF00237E
:10088C00FB714AE0FA79FB792849895C284AD154F2
:10089C00FB79284A52F82320FB79274931F8133089
:1008AC00FC791946104600F01BFF03461A461F4BF5
:1008BC001A55FB791D4AD25CFB791D49CB5C9A42D7
:1008CC0005D1FA79FB791A49895C1C4AD154FB7918
:1008DC001A4AD35C002B14D1FB79194A32F8133025
:1008EC00632B09D8FB79164A32F81320013291B2E6
:1008FC00134A22F813100DE0FB79124A0121D1544E
:10090C0008E0FB790E4A002122F81310FB790D4AFE
:10091C000021D154FB790133FB71FB79022BB1D946
:10092C0000BF00BF0C37BD4690BD00BFB400002017
:10093C00B80000201400002020000020100000202F
:10094C00C0000020BC00002080B483B000AF034680
:10095C00FB71FB79022B01D9002307E0FB79064AD6
:10096C00D35C002B0CBF01230023DBB218460C37E1
:10097C00BD4680BC704700BF1000002080B483B01F
:10098C0000AF0346FB71FB79022B01D9FF2307E073
:10099C00FB79064AD35C012B0CBF01230023DBB28D
:1009AC0018460C37BD4680BC704700BFBC00002009
:1009BC0080B500AF4FF48071024800F0C0FE00BF5C
:1009CC0080BD00BF0008014080B500AF00F09CFB6B
:1009DC0000F022F800F0A8F800F05AF80B4801F0EB
:1009EC00F5FA00F02DF94FF47A724FF47A71084849
:1009FC0000F0F0F9FA224FF47A71064800F0EAF9A7
:100A0C00FFF712FE00F020FA00BFF9E7C800002043
:100A1C00BD090008B102000880B590B000AF07F125
:100A2C00180328220021184601F01AFF3B1D002252
:100A3C001A605A609A60DA601A610223BB61012362
:100A4C00BB621023FB6200237B6307F1180318467B
:100A5C0000F08EFE0346002B01D000F0D8F80F23D7
:100A6C007B600023BB600023FB6000233B61002301
:100A7C007B613B1D0021184601F0FCF80346002B5E
:100A8C0001D000F0C4F800BF4037BD4680BD000067
:100A9C0080B586B000AF07F1080300221A605A60D7
:100AAC009A60DA603B4600221A605A601D4B4FF088
:100ABC0080421A601B4B41F63F725A60194B002260
:100ACC009A60184B0922DA60164B00221A61154BFA
:100ADC0000229A61134801F029FA0346002B01D039
:100AEC0000F095F84FF48053BB6007F108031946EA
:100AFC000C4801F0A7FB0346002B01D000F087F84F
:100B0C0000233B6000237B603B461946054801F0FF
:100B1C007FFD0346002B01D000F079F800BF183799
:100B2C00BD4680BDC800002080B586B000AF07F17F
:100B3C00080300221A605A609A60DA60284B9B699D
:100B4C00274A43F004039361254B9B6903F004038C
:100B5C007B607B68224B9B69214A43F008039361BD
:100B6C001F4B9B6903F008033B603B6800224FF668
:100B7C001E711C4800F0CBFD002241F6FE711A4894
:100B8C0000F0C5FD4FF61E73BB600123FB60002314
:100B9C003B6102237B6107F108031946114800F001
:100BAC0023FCE023BB600023FB6001233B6107F1C6
:100BBC00080319460B4800F017FC41F6FE73BB60A6
:100BCC000123FB6000233B6102237B6107F10803D7
:100BDC001946054800F008FC00BF1837BD4680BD1B
:100BEC000010024000080140000C014080B582B0AA
:100BFC0000AF78607B681B68B3F1804F03D100F0C5
:100C0C0007F9FFF739FE00BF0837BD4680BD80B439
:100C1C0000AF72B600BF00BFFDE780B483B000AF79
:100C2C0078607B681B7C012B04D17B6800221A74D2
:100C3C00012300E0002318460C37BD4680BC7047EA
:100C4C0080B584B000AF144B1B68002B06D1124B3F
:100C5C0000221A60104B00225A6018E00E4B1B68E1
:100C6C00FB600023FB720AE0FB687B60FB685B683F
:100C7C00FB60786801F03EFDFB7A0133FB72FA7A77
:100C8C00054B5B689A42EFD3034B00221A6000BFFE
:100C9C001037BD4680BD00BF1001002080B58AB062
:100CAC0000AFF860B9607A603B60182001F01AFD63
:100CBC0003467B61464B5B68092B02D87B69002B92
:100CCC0001D16E237FE07B69FA681A607B697A68D0
:100CDC009A607B693A68DA607B6900221A747B69D6
:100CEC00BA685A617B6900225A60394B1B68002B29
:100CFC0005D0374B1B689B687A689A4213D8344BE3
:100D0C001B68002B07D0324B1B689968304B1B6853
:100D1C007A688A1A9A602E4B1A687B695A602C4A38
:100D2C007B69136048E000237B62294B1B683B62A4
:100D3C000023FB610023BB6129E03B6A9B687A6A54
:100D4C0013447B627A6A7B689A4218D93B6A9A6828
:100D5C007B6AD21A7B681A447B699A603B6A9A68F0
:100D6C007B699B68D21A3B6A9A607B693A6A5A60C3
:100D7C00FB69002B11D0FB697A695A600DE03B6A64
:100D8C00FB613B6A5B683B62BB690133BB61104B27
:100D9C005A68BB699A42D0D800E000BF3B6A002B6E
:100DAC000AD1FB69002B07D07A687B6AD21A7B695F
:100DBC009A60FB697A695A60054B5B680133044A97
:100DCC0053607B695B6918462837BD4680BD00BF00
:100DDC001001002080B584B000AFF860B9607A6073
:100DEC00094B5968BB68094AA2FB0323DA087B68E4
:100DFC000648A0FB0303DB08F868FFF74FFF034628
:100E0C0018461037BD4680BD10010020CDCCCCCC8F
:100E1C0080B400AF0B4B1B68002B0FD0094B1B6829
:100E2C009B68002B04D1074B1B6801221A7406E047
:100E3C00044B1B689A68013A9A6000E000BFBD46FB
:100E4C0080BC70471001002080B582B000AF154BFC
:100E5C001B68002B22D0134B1B687B607868FFF754
:100E6C00DCFE0346002B1AD07B681B6898477B6816
:100E7C005B69184600F018F80346002B0FD07B680E
:100E8C00DB68002B0BD07B6818687B6859697B6822
:100E9C00DA687B68DB68FFF701FF00E000BF08370A
:100EAC00BD4680BD1001002080B586B000AF7860D3
:100EBC001D4B1B68002B01D16F2330E01A4B1B68B4
:100ECC007B6100233B610023FB6022E07B695B6953
:100EDC007A689A4215D13B69002B04D07B695A6819
:100EEC003B695A6003E07B695B680F4A1360786961
:100EFC0001F000FC0C4B5B68013B0B4A5360012377
:100F0C000DE07B693B617B695B687B61FB6801334E
:100F1C00FB60054B5B68FA689A42D7D36F2318467F
:100F2C001837BD4680BD00BF1001002080B485B0CD
:100F3C0000AF154B9B69144A43F001039361124BAC
:100F4C009B6903F00103BB60BB680F4BDB690E4A66
:100F5C0043F08053D3610C4BDB6903F080537B600F
:100F6C007B680A4B5B68FB60FB6823F0E063FB600B
:100F7C00FB6843F08063FB60044AFB68536000BF6E
:100F8C001437BD4680BC7047001002400000014081
:100F9C0080B584B000AF78607B681B68B3F1804F7C
:100FAC0013D10C4BDB690B4A43F00103D361094BA2
:100FBC00DB6903F00103FB60FB68002200211C20AD
:100FCC0000F0DBF91C2000F0F4F900BF1037BD462F
:100FDC0080BD00BF0010024080B400AF00BFFDE731
:100FEC0080B400AF00BFFDE780B400AF00BFFDE7E9
:100FFC0080B400AF00BFFDE780B400AF00BFFDE7D9
:10100C0080B400AF00BFBD4680BC704780B400AF59
:10101C0000BFBD4680BC704780B400AF00BFBD466A
:10102C0080BC704780B500AF00F0B4F800BF80BD45
:10103C0080B500AF024801F015F800BF80BD00BFBD
:10104C00C800002080B586B000AF7860144A154BFC
:10105C00D31A7B617B693B61134B1B68002B02D15C
:10106C00114B124A1A60104B1A687B6813443A6988
:10107C009A4207D201F00CFC03460C221A604FF086
:10108C00FF3309E0084B1B68FB60074B1A687B6851
:10109C001344054A1360FB6818461837BD4680BDDB
:1010AC000028002000040000180100206802002025
:1010BC0080B400AF00BFBD4680BC7047FFF7F8FF9F
:1010CC000B480C490C4A002302E0D458C45004339A
:1010DC00C4188C42F9D3094A094C002301E013606F
:1010EC000432A242FBD301F0D9FBFFF76DFC704731
:1010FC000000002084000020C82900088400002083
:10110C0068020020FEE7000080B500AF084B1B68AA
:10111C00074A43F010031360032000F023F90F205B
:10112C0000F008F8FFF702FF0023184680BD00BF4F
:10113C000020024080B582B000AF7860124B1A6874
:10114C00124B1B7819464FF47A73B3FBF1F3B2FBD5
:10115C00F3F3184600F03BF90346002B01D00123B2
:10116C000EE07B680F2B0AD8002279684FF0FF3015
:10117C0000F003F9064A7B681360002300E00123AA
:10118C0018460837BD4680BD2800002030000020DE
:10119C002C00002080B400AF054B1B781A46054B81
:1011AC001B681344034A136000BFBD4680BC7047E4
:1011BC00300000201C01002080B400AF024B1B68E3
:1011CC001846BD4680BC70471C01002080B485B019
:1011DC0000AF78607B6803F00703FB600C4BDB68A7
:1011EC00BB60BA684FF6FF031340BB60FB681A0282
:1011FC00BB68134343F0BF6343F40033BB60044A42
:10120C00BB68D36000BF1437BD4680BC704700BFBD
:10121C0000ED00E080B400AF044BDB681B0A03F068
:10122C0007031846BD4680BC704700BF00ED00E0C8
:10123C0080B483B000AF0346FB7197F90730002BE5
:10124C000BDBFB7903F01F02064997F907305B09AA
:10125C00012000FA02F241F8232000BF0C37BD46F2
:10126C0080BC704700E100E080B483B000AF03465F
:10127C003960FB7197F90730002B0ADB3B68DAB257
:10128C000C4997F907301201D2B20B4483F80023B2
:10129C000AE03B68DAB20849FB7903F00F03043B20
:1012AC001201D2B20B441A7600BF0C37BD4680BC7B
:1012BC00704700BF00E100E000ED00E080B489B0B1
:1012CC0000AFF860B9607A60FB6803F00703FB615C
:1012DC00FB69C3F10703042B28BF0423BB61FB6923
:1012EC000433062B02D9FB69033B00E000237B612E
:1012FC004FF0FF32BB6902FA03F3DA43BB681A40C2
:10130C007B699A404FF0FF317B6901FA03F3D943B3
:10131C007B680B40134318462437BD4680BC70478E
:10132C0080B582B000AF78607B68013BB3F1807F01
:10133C0001D301230FE00A4A7B68013B53600F2164
:10134C004FF0FF30FFF790FF054B00229A60044BE3
:10135C0007221A60002318460837BD4680BD00BF1F
:10136C0010E000E080B582B000AF78607868FFF7DD
:10137C002DFF00BF0837BD4680BD80B586B000AFDD
:10138C000346B9607A60FB7300237B61FFF742FF71
:10139C0078617A68B9687869FFF790FF024697F927
:1013AC000F3011461846FFF75FFF00BF1837BD46D8
:1013BC0080BD80B582B000AF0346FB7197F9073052
:1013CC001846FFF735FF00BF0837BD4680BD80B516
:1013DC0082B000AF78607868FFF7A2FF034618462A
:1013EC000837BD4680BD000080B48BB000AF78607C
:1013FC00396000237B6200233B6261E101227B6A3E
:10140C0002FA03F3FB613B681B68FA691340BB618A
:10141C00BA69FB699A4240F050813B685B68974A15
:10142C0093425ED0954A934275D8954A934258D0D0
:10143C00934A93426FD8934A934252D0914A934223
:10144C0069D8914A93424CD08F4A934263D88F4AC1
:10145C00934246D08D4A93425DD8122B2AD8122B38
:10146C0059D801A252F823F0EF140008C91400084F
:10147C00DB1400081D1500082315000823150008AF
:10148C002315000823150008231500082315000850
:10149C002315000823150008231500082315000840
:1014AC00231500082315000823150008D114000883
:1014BC00E5140008764A934213D02CE03B68DB68B5
:1014CC003B6229E03B68DB6804333B6224E03B6809
:1014DC00DB6808333B621FE03B68DB680C333B6224
:1014EC001AE03B689B68002B02D104233B6213E09B
:1014FC003B689B68012B05D108233B627B68FA692A
:10150C001A6109E008233B627B68FA695A6103E0BF
:10151C0000233B6200E000BFBB69FF2B01D87B6856
:10152C0001E07B6804337B61BB69FF2B02D87B6ACB
:10153C009B0002E07B6A083B9B003B617B691A685D
:10154C000F213B6901FA03F3DB431A40396A3B690B
:10155C0001FA03F31A437B691A603B685B6803F07A
:10156C008053002B00F0A9804A4B9B69494A43F0F9
:10157C0001039361474B9B6903F00103BB60BB689C
:10158C00454A7B6A9B08023352F82330FB607B6A26
:10159C0003F003039B000F2202FA03F3DB43FA6808
:1015AC001340FB607B683D4A93420DD07B683C4AFC
:1015BC00934207D07B683B4A934201D1022304E05B
:1015CC00032302E0012300E000237A6A02F0030205
:1015DC0092009340FA681343FB602F497B6A9B0887
:1015EC000233FA6841F823203B685B6803F48013EC
:1015FC00002B06D02C4B9A682B49BB6913438B608C
:10160C0006E0294B9A68BB69DB43274913408B6082
:10161C003B685B6803F40013002B06D0224BDA689E
:10162C002149BB691343CB6006E01F4BDA68BB69E9
:10163C00DB431D491340CB603B685B6803F400330C
:10164C00002B06D0184B5A681749BB6913434B60E3
:10165C0006E0154B5A68BB69DB43134913404B60DA
:10166C003B685B6803F48033002B1FD00E4B1A6869
:10167C000D49BB6913430B601FE000BF0000321023
:10168C000000311000002210000021100000121088
:10169C000000111000100240000001400008014041
:1016AC00000C014000100140000401400B4B1A6873
:1016BC00BB69DB43094913400B607B6A01337B62D6
:1016CC003B681A687B6A22FA03F3002B7FF496AE10
:1016DC0000BF00BF2C37BD4680BC704700040140E2
:1016EC0080B485B000AF78600B467B807B689A68CD
:1016FC007B881340002B02D00123FB7301E00023F5
:10170C00FB73FB7B18461437BD4680BC704780B416
:10171C0083B000AF78600B467B8013467B707B7880
:10172C00002B03D07A887B681A6103E07B881A044B
:10173C007B681A6100BF0C37BD4680BC704780B413
:10174C0085B000AF78600B467B807B68DB68FB6004
:10175C007A88FB6813401A04FB68D9437B880B40DA
:10176C001A437B681A6100BF1437BD4680BC7047B2
:10177C0080B586B000AF78607B68002B01D1012367
:10178C0072E27B681B6803F00103002B00F087807A
:10179C00924B5B6803F00C03042B0CD08F4B5B68F3
:1017AC0003F00C03082B12D18C4B5B6803F48033D1
:1017BC00B3F5803F0BD1894B1B6803F40033002B2E
:1017CC006CD07B685B68002B68D101234CE27B6892
:1017DC005B68B3F5803F06D1804B1B687F4A43F4AE
:1017EC00803313602EE07B685B68002B0CD17B4B45
:1017FC001B687A4A23F480331360784B1B68774A52
:10180C0023F4802313601DE07B685B68B3F5A02F85
:10181C000CD1724B1B68714A43F4802313606F4BDD
:10182C001B686E4A43F4803313600BE06B4B1B68F0
:10183C006A4A23F480331360684B1B68674A23F4AD
:10184C00802313607B685B68002B13D0FFF7B4FC1C
:10185C00386108E0FFF7B0FC02463B69D31A642BF1
:10186C0001D9032300E25D4B1B6803F40033002B0A
:10187C00F0D014E0FFF7A0FC386108E0FFF79CFC07
:10188C0002463B69D31A642B01D90323ECE1534B79
:10189C001B6803F40033002BF0D100E000BF7B6821
:1018AC001B6803F00203002B63D04C4B5B6803F006
:1018BC000C03002B0BD0494B5B6803F00C03082B7B
:1018CC001CD1464B5B6803F48033002B16D1434B81
:1018DC001B6803F00203002B05D07B681B69012BEE
:1018EC0001D00123C0E13D4B1B6823F0F8027B685B
:1018FC005B69DB00394913430B603AE07B681B6979
:10190C00002B20D0364B01221A60FFF755FC3861B2
:10191C0008E0FFF751FC02463B69D31A022B01D9B0
:10192C000323A1E12D4B1B6803F00203002BF0D025
:10193C002A4B1B6823F0F8027B685B69DB002749A4
:10194C0013430B6015E0264B00221A60FFF734FCA2
:10195C00386108E0FFF730FC02463B69D31A022BD2
:10196C0001D9032380E11D4B1B6803F00203002BFC
:10197C00F0D17B681B6803F00803002B3AD07B681E
:10198C009B69002B19D0174B01221A60FFF714FC2E
:10199C00386108E0FFF710FC02463B69D31A022BB2
:1019AC0001D9032360E10D4B5B6A03F00203002BAA
:1019BC00F0D0012000F09CFA1CE00A4B00221A60C7
:1019CC00FFF7FAFB38610FE0FFF7F6FB02463B69C5
:1019DC00D31A022B08D9032346E100BF00100240A2
:1019EC000000424280044242924B5B6A03F00203C5
:1019FC00002BE9D17B681B6803F00403002B00F07B
:101A0C00A6800023FB758B4BDB6903F08053002B06
:101A1C000DD1884BDB69874A43F08053D361854BEA
:101A2C00DB6903F08053BB60BB680123FB75824B01
:101A3C001B6803F48073002B18D17F4B1B687E4A04
:101A4C0043F480731360FFF7B7FB386108E0FFF7CE
:101A5C00B3FB02463B69D31A642B01D9032303E180
:101A6C00754B1B6803F48073002BF0D07B68DB682C
:101A7C00012B06D16F4B1B6A6E4A43F001031362B4
:101A8C002DE07B68DB68002B0CD16A4B1B6A694A22
:101A9C0023F001031362674B1B6A664A23F00403AD
:101AAC0013621CE07B68DB68052B0CD1614B1B6A55
:101ABC00604A43F0040313625E4B1B6A5D4A43F0B9
:101ACC00010313620BE05B4B1B6A5A4A23F00103C0
:101ADC001362584B1B6A574A23F0040313627B684A
:101AEC00DB68002B15D0FFF767FB38610AE0FFF7C6
:101AFC0063FB02463B69D31A41F28832934201D907
:101B0C000323B1E04B4B1B6A03F00203002BEED016
:101B1C0014E0FFF751FB38610AE0FFF74DFB02467A
:101B2C003B69D31A41F28832934201D903239BE0DB
:101B3C00404B1B6A03F00203002BEED1FB7D012B03
:101B4C0005D13C4BDB693B4A23F08053D3617B6866
:101B5C00DB69002B00F08780364B5B6803F00C03CD
:101B6C00082B61D07B68DB69022B46D1334B0022FA
:101B7C001A60FFF721FB386108E0FFF71DFB0246F6
:101B8C003B69D31A022B01D903236DE0294B1B6847
:101B9C0003F00073002BF0D17B681B6AB3F5803F18
:101BAC0008D1244B5B6823F400327B689B68214985
:101BBC0013434B601F4B5B6823F474127B68196AE8
:101BCC007B685B6A0B431B4913434B601B4B012225
:101BDC001A60FFF7F1FA386108E0FFF7EDFA0246F8
:101BEC003B69D31A022B01D903233DE0114B1B682F
:101BFC0003F00073002BF0D035E0104B00221A607C
:101C0C00FFF7DAFA386108E0FFF7D6FA02463B69CB
:101C1C00D31A022B01D9032326E0064B1B6803F0D1
:101C2C000073002BF0D11EE07B68DB69012B07D120
:101C3C00012319E000100240007000406000424295
:101C4C000B4B5B68FB60FB6803F480327B681B6AA0
:101C5C009A4206D1FB6803F470127B685B6A9A4265
:101C6C0001D0012300E0002318461837BD4680BD83
:101C7C000010024080B584B000AF786039607B689A
:101C8C00002B01D10123D0E06A4B1B6803F0070342
:101C9C003A689A4210D9674B1B6823F007026549D2
:101CAC003B6813430B60634B1B6803F007033A68F4
:101CBC009A4201D00123B8E07B681B6803F0020351
:101CCC00002B20D07B681B6803F00403002B05D08D
:101CDC00594B5B68584A43F4E06353607B681B685C
:101CEC0003F00803002B05D0534B5B68524A43F4B6
:101CFC0060535360504B5B6823F0F0027B689B6829
:101D0C004D4913434B607B681B6803F00103002BA8
:101D1C0040D07B685B68012B07D1474B1B6803F4F1
:101D2C000033002B15D101237FE07B685B68022B0D
:101D3C0007D1414B1B6803F00073002B09D1012321
:101D4C0073E03D4B1B6803F00203002B01D1012310
:101D5C006BE0394B5B6823F003027B685B683649A8
:101D6C0013434B60FFF728FAF8600AE0FFF724FAF8
:101D7C000246FB68D31A41F28832934201D90323FD
:101D8C0053E02D4B5B6803F00C027B685B689B0097
:101D9C009A42EBD1274B1B6803F007033A689A422F
:101DAC0010D2244B1B6823F0070222493B681343D3
:101DBC000B60204B1B6803F007033A689A4201D072
:101DCC00012332E07B681B6803F00403002B08D06E
:101DDC00194B5B6823F4E0627B68DB68164913439C
:101DEC004B607B681B6803F00803002B09D0124B77
:101DFC005B6823F460527B681B69DB000E4913435C
:101E0C004B6000F021F802460B4B5B681B0903F09A
:101E1C000F030A49CB5C22FA03F3094A1360094BFE
:101E2C001B681846FFF786F9002318461037BD4685
:101E3C0080BD00BF00200240001002409C29000819
:101E4C00280000202C00002080B487B000AF0023B5
:101E5C00FB600023BB6000237B6100237B600023BD
:101E6C003B611E4B5B68FB60FB6803F00C03042BAF
:101E7C0002D0082B03D027E0194B3B6127E0FB680D
:101E8C009B0C03F00F03174AD35C7B60FB6803F4D5
:101E9C008033002B10D0114B5B685B0C03F00103FB
:101EAC00114AD35CBB607B680D4A03FB02F2BB6832
:101EBC00B2FBF3F37B6104E07B680C4A02FB03F397
:101ECC007B617B693B6102E0054B3B6100BF3B6979
:101EDC0018461C37BD4680BC704700BF001002403E
:101EEC0000127A00AC290008BC29000800093D004A
:101EFC0080B485B000AF78600A4B1B680A4AA2FB1D
:101F0C0003235B0A7A6802FB03F3FB6000BFFB68E8
:101F1C005A1EFA60002BF9D100BF00BF1437BD4622
:101F2C0080BC704728000020D34D621080B582B071
:101F3C0000AF78607B68002B01D1012341E07B6806
:101F4C0093F83D30DBB2002B06D17B68002283F87E
:101F5C003C207868FFF71CF87B68022283F83D2050
:101F6C007B681A687B6804331946104600F056FAF1
:101F7C007B68012283F846207B68012283F83E208F
:101F8C007B68012283F83F207B68012283F8402084
:101F9C007B68012283F841207B68012283F8422070
:101FAC007B68012283F843207B68012283F844205C
:101FBC007B68012283F845207B68012283F83D2051
:101FCC00002318460837BD4680BD000080B485B09C
:101FDC0000AF78607B6893F83D30DBB2012B01D009
:101FEC00012335E07B68022283F83D207B681B6867
:101FFC00DA687B681B6842F00102DA607B681B6858
:10200C00164A934209D07B681B68B3F1804F04D009
:10201C007B681B68124A934211D17B681B689B68D2
:10202C0003F00703FB60FB68062B10D07B681B6872
:10203C001A687B681B6842F001021A6007E07B6833
:10204C001B681A687B681B6842F001021A60002347
:10205C0018461437BD4680BC704700BF002C0140A9
:10206C000004004080B584B000AF78607B681B68CA
:10207C00DB68FB607B681B681B69BB60BB6803F09B
:10208C000203002B20D0FB6803F00203002B1BD0B3
:10209C007B681B686FF002021A617B6801221A7759
:1020AC007B681B689B6903F00303002B03D07868E3
:1020BC0000F098F905E0786800F08BF9786800F08A
:1020CC009AF97B6800221A77BB6803F00403002B93
:1020DC0020D0FB6803F00403002B1BD07B681B682B
:1020EC006FF004021A617B6802221A777B681B6806
:1020FC009B6903F44073002B03D0786800F072F9ED
:10210C0005E0786800F065F9786800F074F97B6890
:10211C0000221A77BB6803F00803002B20D0FB6861
:10212C0003F00803002B1BD07B681B686FF00802C0
:10213C001A617B6804221A777B681B68DB6903F0E1
:10214C000303002B03D0786800F04CF905E07868A5
:10215C0000F03FF9786800F04EF97B6800221A779E
:10216C00BB6803F01003002B20D0FB6803F01003B6
:10217C00002B1BD07B681B686FF010021A617B6808
:10218C0008221A777B681B68DB6903F44073002B09
:10219C0003D0786800F026F905E0786800F019F9AA
:1021AC00786800F028F97B6800221A77BB6803F086
:1021BC000103002B0CD0FB6803F00103002B07D0AC
:1021CC007B681B686FF001021A617868FEF70EFDE0
:1021DC00BB6803F08003002B0CD0FB6803F080037A
:1021EC00002B07D07B681B686FF080021A6178683F
:1021FC0000F06FFABB6803F04003002B0CD0FB68B7
:10220C0003F04003002B07D07B681B686FF0400283
:10221C001A61786800F0F8F8BB6803F02003002B13
:10222C000CD0FB6803F02003002B07D07B681B68E5
:10223C006FF020021A61786800F042FA00BF103784
:10224C00BD4680BD80B584B000AF78603960002396
:10225C00FB737B6893F83C30012B01D10223B4E073
:10226C007B68012283F83C207B68022283F83D20A6
:10227C007B681B689B68BB60BB6823F07703BB6003
:10228C00BB6823F47F43BB607B681B68BA689A60A9
:10229C003B681B68B3F5005F3ED0B3F5005F00F2FE
:1022AC008780B3F5805F00F08680B3F5805F7FD8C0
:1022BC00702B1AD0702B7BD8602B50D0602B77D81A
:1022CC00502B3CD0502B73D8402B58D0402B6FD870
:1022DC00302B64D0302B6BD8202B60D0202B67D8C0
:1022EC00002B5CD0102B5AD062E07B6818683B68DE
:1022FC0099683B685A683B68DB6800F06AF97B6850
:10230C001B689B68BB60BB6843F07703BB607B6852
:10231C001B68BA689A604FE07B6818683B689968DC
:10232C003B685A683B68DB6800F053F97B681B68B4
:10233C009A687B681B6842F480429A603CE07B6838
:10234C0018683B6859683B68DB681A4600F0CAF8A5
:10235C007B681B685021184600F021F92CE07B6843
:10236C0018683B6859683B68DB681A4600F0E8F867
:10237C007B681B686021184600F011F91CE07B6833
:10238C0018683B6859683B68DB681A4600F0AAF885
:10239C007B681B684021184600F001F90CE07B6853
:1023AC001A683B681B681946104600F0F8F803E001
:1023BC000123FB7300E000BF7B68012283F83D2002
:1023CC007B68002283F83C20FB7B18461037BD4607
:1023DC0080BD80B483B000AF786000BF0C37BD46C1
:1023EC0080BC704780B483B000AF786000BF0C37FE
:1023FC00BD4680BC704780B483B000AF786000BF2E
:10240C000C37BD4680BC704780B483B000AF786099
:10241C0000BF0C37BD4680BC7047000080B485B04F
:10242C0000AF786039607B681B68FB607B682B4A67
:10243C00934207D07B68B3F1804F03D07B68284A66
:10244C00934208D1FB6823F07003FB603B685B6828
:10245C00FA681343FB607B68204A934207D07B6881
:10246C00B3F1804F03D07B681D4A934208D1FB68BF
:10247C0023F44073FB603B68DB68FA681343FB6032
:10248C00FB6823F080023B685B691343FB607B684D
:10249C00FA681A603B689A687B68DA623B681A686B
:1024AC007B689A627B680D4A934203D13B681A6938
:1024BC007B681A637B6801225A617B681B6903F095
:1024CC000103002B05D07B681B6923F001027B689C
:1024DC001A6100BF1437BD4680BC7047002C014008
:1024EC000004004080B487B000AFF860B9607A6037
:1024FC00FB681B6A7B61FB681B6A23F00102FB68AB
:10250C001A62FB689B693B613B6923F0F0033B61FA
:10251C007B681B013A6913433B617B6923F00A0317
:10252C007B617A69BB6813437B61FB683A699A618A
:10253C00FB687A691A6200BF1C37BD4680BC7047C5
:10254C0080B487B000AFF860B9607A60FB681B6A32
:10255C007B61FB681B6A23F01002FB681A62FB6844
:10256C009B693B613B6923F470433B617B681B03B4
:10257C003A6913433B617B6923F0A0037B61BB6821
:10258C001B017A6913437B61FB683A699A61FB68AA
:10259C007A691A6200BF1C37BD4680BC704780B494
:1025AC0085B000AF786039607B689B68FB60FB6826
:1025BC0023F07003FB603A68FB68134343F0070396
:1025CC00FB607B68FA689A6000BF1437BD4680BC1C
:1025DC00704780B487B000AFF860B9607A603B6038
:1025EC00FB689B687B617B6923F47F437B613B6861
:1025FC001A027B681A43BB6813437A6913437B61E5
:10260C00FB687A699A6000BF1C37BD4680BC704776
:10261C0080B485B000AF786039607B6893F83C304B
:10262C00012B01D1022341E07B68012283F83C207D
:10263C007B68022283F83D207B681B685B68FB602B
:10264C007B681B689B68BB60FB6823F07003FB60B6
:10265C003B681B68FA681343FB607B681B68FA686D
:10266C005A607B681B68144A934209D07B681B68CC
:10267C00B3F1804F04D07B681B68104A93420CD195
:10268C00BB6823F08003BB603B685B68BA6813438C
:10269C00BB607B681B68BA689A607B68012283F810
:1026AC003D207B68002283F83C2000231846143719
:1026BC00BD4680BC704700BF002C014000040040A8
:1026CC0080B483B000AF786000BF0C37BD4680BCCF
:1026DC00704780B483B000AF786000BF0C37BD4644
:1026EC0080BC7047024B0146186800F02DB800BF43
:1026FC0034000020024B0146186800F0F5B800BF0A
:10270C003400002070B50F4E0C463168054611B9E7
:10271C0000F0AEF830602146284600F0A9F8431CC2
:10272C0003D14FF0FF34204670BDC41C24F00304C9
:10273C00A042F8D0211A284600F09AF80130F2D1C4
:10274C00EFE700BF200100202DE9F843CD1C25F058
:10275C00030508350C2D38BF0C25002D064601DB72
:10276C00A94204D90C2333600020BDE8F883DFF8BC
:10277C00D48000F069F8D8F800301C4644BB2946D8
:10278C003046FFF7BFFF431C044658D1D8F8004031
:10279C002746002F43D1002C4BD0236839463046B6
:1027AC0004EB030900F064F8814542D121683046FE
:1027BC006D1A2946FFF7A6FF01303AD023682B4447
:1027CC002360D8F800305A6862BBC8F800700FE07C
:1027DC002268521B20D40B2A17D96119A3422560F9
:1027EC0018BF5960636808BFC8F8001062514B608D
:1027FC00304600F02FF804F10B00231D20F00700E9
:10280C00C21A1CBF1B1AA350AFE76268A3420CBFCD
:10281C00C8F800205A60EBE723466468AEE73C46F4
:10282C007F68B6E71A465B68A342FBD1002353606E
:10283C00DEE70C233046336000F00CF894E70560BB
:10284C00D6E700BF24010020014800F04BB800BFC0
:10285C0064020020014800F046B800BF640200206A
:10286C0003460244934200D1704703F8011BF9E779
:10287C0038B50023054D044608462B60FEF7E2FBF5
:10288C00431C02D12B6803B1236038BD60020020C9
:10289C00014B1868704700BF3400002070B500264B
:1028AC000C4D0D4C641BA410A64209D100F064F829
:1028BC0000260A4D0A4C641BA410A64205D170BD1B
:1028CC0055F8043B98470136EEE755F8043B98471A
:1028DC000136F2E7C0290008C0290008C029000809
:1028EC00C42900087047704738B50546002940D008
:1028FC0051F8043C0C1F002BB8BFE418FFF7A4FFE1
:10290C001C4A136833B9636014602846BDE838402C
:10291C00FFF7A0BFA34208D9206821188B4201BF42
:10292C0019685B6809182160EDE71A465B680BB102
:10293C00A342FAD911685018A0420BD12068014467
:10294C00501883421160E0D118685B68084410602D
:10295C005360DAE702D90C232B60D6E720682118E4
:10296C008B4201BF19685B68091821606360546071
:10297C00CBE738BD24010020F8B500BFF8BC08BC7B
:10298C009E467047F8B500BFF8BC08BC9E46704721
:10299C000000000000000000010203040607080903
:1029AC0002030405060708090A0B0C0D0E0F101084
:0429BC000102000014
:0429C00031010008D9
:0429C4000D010008F9
:1029C80005020300020004000800100001000000D6
:1029D8000101010000080140000801400008014011
:1029E800200040008000000000127A001000000063
:1029F800010000003800002000000000280100202D
:102A080090010020F80100200000000000000000F4
:102A180000000000000000000000000000000000AE
:102A2800000000000000000000000000000000009E
:102A3800000000000000000000000000000000008E
:042A4800000000008A
:04000005080010C916
:00000001FF
