:020000040800F2
:100000000028002049100008E10E0008E90E000851
:10001000F10E0008F90E0008010F000800000000B2
:10002000000000000000000000000000090F0008B0
:10003000150F000800000000210F00082D0F000818
:10004000911000089110000891100008911000080C
:1000500091100008911000089110000891100008FC
:1000600091100008911000089110000891100008EC
:1000700091100008911000089110000891100008DC
:1000800091100008911000089110000891100008CC
:1000900091100008911000089110000891100008BC
:1000A00091100008911000089110000891100008AC
:1000B000390F00089110000800000000911000089E
:1000C00091100008000000000000000091100008DE
:1000D00000000000911000089110000800000000CE
:1000E0009110000891100008911000080000000015
:1000F0000000000000000000000000000000000000
:0C01000000000000000000005FF808F1A3
:10010C0010B5054C237833B9044B13B10448AFF345
:10011C0000800123237010BD30000020000000007F
:10012C00C826000808B5034B1BB103490348AFF3BD
:10013C00008008BD0000000034000020C826000824
:10014C0080B500AFA54B1B78022B67D0022B00F3B8
:10015C00B280002B02D0012B4CD0ACE0002000F080
:10016C00DFF90346002B00F0A1809D4BDB689C4A15
:10017C0043F4FF5343F01E03D3609A4B1B785A1C75
:10018C00994B83FB02135910D317C91A0B469B00CA
:10019C000B44D11ACAB2934B1A70924B1B78042B96
:1001AC001AD0042B22DC022B02D0032B0AD01DE028
:1001BC008E4B1A788E4B1A7042F21071042000F09C
:1001CC00BFFE13E08B4B1A78894B1A7042F21071F8
:1001DC00042000F0B5FE09E0874B1A78844B1A70A6
:1001EC0042F21071042000F0ABFE00BF7B4B0122E9
:1001FC001A705BE0002000F093F90346002B03D14A
:10020C00764B00221A7053E0002000F0A3F903464D
:10021C00002B4DD0714B02221A7049E0002000F0E7
:10022C007FF90346002B03D16C4B00221A7041E07E
:10023C00032000F0D9FE0346012B3BD1684BDB6851
:10024C00674A43F4FF5343F01E03D360654B1B789E
:10025C005A1C654B83FB02135910D317C91A0B4652
:10026C009B000B44D11ACAB25E4B1A705D4B1B78C3
:10027C00042B10D0042B13DC022B02D0032B05D043
:10028C000EE05A4B1A785A4B1A7009E0594B1A78EF
:10029C00574B1A7004E0584B1A78554B1A7000BF24
:1002AC004FF4FA71032000F04BFE03E000BF02E0B4
:1002BC0000BF00E000BF494B5B78022B34D0022B0F
:1002CC005CDC002B02D0012B1AD057E0012000F08F
:1002DC0027F90346002B4CD0454B1B780133474A7A
:1002EC0082FB03125111DA178A1A642101FB02F204
:1002FC009A1AD2B23E4B1A70384B01225A7038E01F
:10030C00012000F00DF90346002B03D1334B0022E2
:10031C005A7030E0012000F01DF90346002B2AD062
:10032C002E4B02225A7026E0012000F0F9F8034609
:10033C00002B02D1294B00225A70032000F054FEEE
:10034C000346012B19D12A4B1B7801332B4A82FB14
:10035C0003125111DA178A1A642101FB02F29A1A5C
:10036C00D2B2234B1A704FF4FA71032000F0E8FD5F
:10037C0003E000BF02E000BF00E000BF174B9B781A
:10038C00022B51D0022B5EDC002B02D0012B37D07C
:10039C0059E0022000F0C4F80346002B4ED0114B5C
:1003AC001B78042B10D0042B13DC022B02D0032B54
:1003BC0005D00EE00E4B1A780C4B1A7009E00C4B62
:1003CC001A780C4B1A7004E0094B1A780A4B1A7005
:1003DC0000BF024B01229A7030E000BF5800002091
:1003EC00000C01404C00002067666666000000208F
:1003FC005400002001000020020000201F85EB515A
:10040C00022000F08DF80346002B03D10F4B002285
:10041C009A7015E0022000F09DF80346002B0FD0D7
:10042C000A4B02229A700BE0022000F079F8034686
:10043C00002B07D1054B00229A7003E000BF02E0AD
:10044C0000BF00E000BF00BF80BD00BF580000200F
:10045C0090B583B000AF0023FB714AE0FA79FB79C9
:10046C002849895C284AD154FB79284A52F8232020
:10047C00FB79274931F81330FC791946104601F005
:10048C00EFF803461A461F4B1A55FB791D4AD25CEE
:10049C00FB791D49CB5C9A4205D1FA79FB791A4953
:1004AC00895C1C4AD154FB791A4AD35C002B14D1B9
:1004BC00FB79194A32F81330632B09D8FB79164AA9
:1004CC0032F81320013291B2134A22F813100DE0C6
:1004DC00FB79124A0121D15408E0FB790E4A002124
:1004EC0022F81310FB790D4A0021D154FB7901330A
:1004FC00FB71FB79022BB1D900BF00BF0C37BD4695
:10050C0090BD00BF5C0000206000002008000020AF
:10051C00140000200400002068000020640000206B
:10052C0080B483B000AF0346FB71FB79022B01D979
:10053C00002307E0FB79064AD35C002B0CBF012398
:10054C000023DBB218460C37BD4680BC704700BF99
:10055C000400002080B483B000AF0346FB71FB792C
:10056C00022B01D9FF2307E0FB79064AD35C012B50
:10057C000CBF01230023DBB218460C37BD4680BCF0
:10058C00704700BF6400002080B483B000AF786077
:10059C00374BDB68364A23F47E43D3607B68092BE8
:1005AC005AD801A252F823F0DD050008EB0500082B
:1005BC00F9050008070600081506000823060008C0
:1005CC00310600083F0600084D06000857060008D3
:1005DC00274BDB68264A43F40043D36043E0244BAB
:1005EC00DB68234A43F47243D3603CE0204BDB6866
:1005FC001F4A43F49043D36035E01D4BDB681C4A23
:10060C0043F4C043D3602EE0194BDB68184A43F423
:10061C004853D36027E0164BDB68154A43F410535C
:10062C00D36020E0124BDB68114A43F48063D36043
:10063C0019E00F4BDB680E4A43F47043D36012E0B1
:10064C000B4B0B4ADB68D3600DE0094BDB68084AA7
:10065C0043F40053D36006E0054BDB68044A43F4D3
:10066C007E43D36000BF00BF0C37BD4680BC7047D3
:10067C000008014080B483B000AF03460A46FB710A
:10068C001346BB71FB79174AA2FB0323DB08DAB2D2
:10069C00154B1A70FA79134BA3FB0213D9080B46AE
:1006AC009B000B445B00D31ADAB20F4B5A70BB7928
:1006BC000C4AA2FB0323DB08DAB20B4B9A70BA7913
:1006CC00084BA3FB0213D9080B469B000B445B00A1
:1006DC00D31ADAB2044BDA7000BF0C37BD4680BCBB
:1006EC00704700BFCDCCCCCC5000002080B500AF03
:1006FC00012000F079FC0346012B2BD1164BDB6853
:10070C00154A43F0F003D360144B1B781A46144B74
:10071C009B5C1846FFF738FF0F4BDB680F4A1278CB
:10072C001146104A32F81120D24311460A4A0B40A6
:10073C00D3600A4B1B7801335A4203F0030302F0D7
:10074C00030258BF5342DAB2044B1A70FA2101204B
:10075C0000F0F6FB00BF80BD000801406E000020D9
:10076C00500000201C00002080B500AF724B1B789D
:10077C00724A127811461846FFF77CFF704B1B78B3
:10078C00022B3AD0022B57DC002B02D0012B1AD0B3
:10079C0052E06C4BDB686B4A23F08203D360664BF0
:1007AC001B78002B43D1674BDB68664A43F4FF533D
:1007BC0043F01E03D360624B01221A70624B1A780D
:1007CC005D4B1A7033E05F4BDB685E4A23F4827337
:1007DC00D360594B1B78002B2BD15A4BDB68594AF1
:1007EC0043F4FF5343F01E03D360554B02221A709F
:1007FC00564B1A78504B1A701BE0524BDB68514A1F
:10080C0023F40273D3604C4B1B78002B13D14D4B4C
:10081C00DB684C4A43F4FF5343F01E03D360484B50
:10082C0000221A704A4B1A78434B1A7003E000BF2F
:10083C0002E000BF00E000BF464B1B78022B3AD011
:10084C00022B57DC002B02D0012B1AD052E03D4B6F
:10085C00DB683C4A23F48263D360384B1B78002B53
:10086C0043D1384BDB68374A43F4FF5343F01E0344
:10087C00D360384B01221A70334B1A782F4B1A70F5
:10088C0033E0304BDB682F4A23F40263D3602B4BED
:10089C001B78002B2BD12B4BDB682A4A43F4FF53DC
:1008AC0043F01E03D3602B4B02221A70274B1A788D
:1008BC00224B1A701BE0234BDB68224A23F4825331
:1008CC00D3601E4B1B78002B13D11E4BDB681D4ACB
:1008DC0043F4FF5343F01E03D3601E4B00221A70E7
:1008EC001B4B1A78154B1A7003E000BF02E000BFD7
:1008FC0000E000BF002000F077FB0346012B18D16D
:10090C000D4B1B78002B05D00B4B1B78013BDAB23F
:10091C00094B1A70094B1B78002B05D0074B1B7821
:10092C00013BDAB2054B1A704FF47A71002000F0DB
:10093C0007FB00BF80BD00BF6F00002070000020CF
:10094C0055000020000C0140020000200100002096
:10095C00000000200300002080B500AF1A4B1B786C
:10096C0019460220FFF786FE022000F03DFB0346ED
:10097C00012B15D10221154800F0A1FE10211348BE
:10098C0000F09DFE8021114800F099FE4FF480612B
:10099C000E4800F094FE4FF47A71022000F0D0FA69
:1009AC000120FFF7BDFD0346002B05D10220FFF708
:1009BC00B7FD0346002B04D042F21071042000F066
:1009CC00BFFA00BF80BD00BF54000020000C0140E6
:1009DC0080B500AF1A4B1B7819460320FFF74AFE6F
:1009EC00022000F001FB0346012B16D1082115480B
:1009FC0000F065FE4021134800F061FE4FF40071D9
:100A0C00104800F05CFE4FF480510E4800F057FE89
:100A1C004FF47A71022000F093FA0120FFF780FD69
:100A2C000346002B05D10220FFF77AFD0346002B6D
:100A3C0004D042F21071042000F082FA00BF80BD95
:100A4C0054000020000C014080B500AF1A4B1B78FD
:100A5C0019460420FFF70EFE022000F0C5FA0346EB
:100A6C00012B16D10421154800F029FE2021134832
:100A7C0000F025FE4FF48071104800F020FE4FF47A
:100A8C0000610E4800F01BFE4FF47A71022000F05A
:100A9C0057FA0120FFF744FD0346002B05D1022035
:100AAC00FFF73EFD0346002B04D042F210710420E8
:100ABC0000F046FA00BF80BD54000020000C01403D
:100ACC0080B500AF374B1B78042B5DD801A252F8D0
:100ADC0023F000BFF50A00084D0B0008530B00086B
:100AEC00690B00087F0B00086121002000F028FA38
:100AFC00FD21012000F024FA40F23541022000F0E3
:100B0C001FFA40F2F111032000F01AFA264BDB68B1
:100B1C00254A43F4FF5343F01E03D360234B1A784A
:100B2C00234B1A70234B1A78234B1A70234B002239
:100B3C001A70234B01221A701A4B01221A702CE0E6
:100B4C00FFF712FE29E0FFF707FF00F061FA0346FA
:100B5C00002B1DD0134B00221A7019E0FFF738FF41
:100B6C0000F056FA0346002B14D00E4B00221A70DC
:100B7C0010E0FFF769FF00F04BFA0346002B0BD097
:100B8C00084B00221A7007E0064B00221A7004E092
:100B9C0000BF02E000BF00E000BFFFF7A7FD00BFF1
:100BAC0080BD00BF4C000020000C01400000002064
:100BBC006F00002002000020700000205500002073
:100BCC000300002080B582B000AF78607B681B68A2
:100BDC00B3F1804F03D1FFF73BFC00F0D1F900BF1C
:100BEC000837BD4680BD000080B500AF00F04CFA60
:100BFC0000F02AF800F0B0F800F062F8104801F0AC
:100C0C00A5F900224FF480710E4800F040FD002041
:100C1C00FFF786FC0346012B06D101224FF48071AD
:100C2C00084800F034FD05E000224FF480710548BF
:100C3C0000F02DFDFFF744FFFFF782FAE7E700BF56
:100C4C00740000200008014080B590B000AF07F19F
:100C5C00180328220021184601F004FD3B1D002238
:100C6C001A605A609A60DA601A610223BB61012330
:100C7C00BB621023FB6200237B6307F11803184649
:100C8C0000F036FD0346002B01D000F0C7F80F230F
:100C9C007B600023BB600023FB6000233B610023CF
:100CAC007B613B1D0021184600F0A4FF0346002B7E
:100CBC0001D000F0B3F800BF4037BD4680BD000046
:100CCC0080B586B000AF07F1080300221A605A60A5
:100CDC009A60DA603B4600221A605A601D4B4FF056
:100CEC0080421A601B4B41F63F725A60194B00222E
:100CFC009A60184B0922DA60164B00221A61154BC8
:100D0C0000229A61134801F0D1F80346002B01D060
:100D1C0000F084F84FF48053BB6007F108031946C8
:100D2C000C4801F04FFA0346002B01D000F076F886
:100D3C0000233B6000237B603B461946054801F0CD
:100D4C0027FC0346002B01D000F068F800BF1837D1
:100D5C00BD4680BD7400002080B586B000AF07F1A1
:100D6C00080300221A605A609A60DA60284B9B696B
:100D7C00274A43F004039361254B9B6903F004035A
:100D8C007B607B68224B9B69214A43F0080393618B
:100D9C001F4B9B6903F008033B603B6800224FF636
:100DAC00F0711C4800F073FC002241F6FE711A48E9
:100DBC0000F06DFC0E23BB600023FB6001233B6144
:100DCC0007F108031946134800F0CEFA4FF6F073FA
:100DDC00BB600123FB6000233B6102237B6107F1B5
:100DEC00080319460B4800F0BFFA41F6FE73BB60CE
:100DFC000123FB6000233B6102237B6107F10803A5
:100E0C001946054800F0B0FA00BF1837BD4680BD42
:100E1C000010024000080140000C014080B400AFFB
:100E2C0072B600BF00BFFDE780B485B000AF154BB4
:100E3C009B69144A43F001039361124B9B6903F0C5
:100E4C000103BB60BB680F4BDB690E4A43F0805358
:100E5C00D3610C4BDB6903F080537B607B680A4BDE
:100E6C005B68FB60FB6823F0E063FB60FB6843F0AE
:100E7C008063FB60044AFB68536000BF1437BD46B7
:100E8C0080BC7047001002400000014080B584B067
:100E9C0000AF78607B681B68B3F1804F13D10C4BAB
:100EAC00DB690B4A43F00103D361094BDB6903F0A7
:100EBC000103FB60FB68002200211C2000F01DFADE
:100ECC001C2000F036FA00BF1037BD4680BD00BFB5
:100EDC000010024080B400AF00BFFDE780B400AF4B
:100EEC0000BFFDE780B400AF00BFFDE780B400AFEA
:100EFC0000BFFDE780B400AF00BFFDE780B400AFDA
:100F0C0000BFBD4680BC704780B400AF00BFBD467B
:100F1C0080BC704780B400AF00BFBD4680BC70473A
:100F2C0080B500AF00F0F6F800BF80BD80B500AF13
:100F3C00024801F057F800BF80BD00BF74000020CC
:100F4C0080B483B000AF78600B467B807B880A4A04
:100F5C00A2FB0323DB0899B2084A7B689B0013446D
:100F6C000A465A80054A7B68002102F8231000BF0C
:100F7C000C37BD4680BC7047CDCCCCCCBC0000201F
:100F8C0080B483B000AF00237B6022E0154A7B68FD
:100F9C009B0013445B88002B18D0124A7B689B0083
:100FAC0013445B88013B99B20E4A7B689B00134447
:100FBC000A465A800B4A7B689B0013445B88002BC3
:100FCC0004D1084A7B68012102F823107B680133A5
:100FDC007B607B68092BD9DD00BF00BF0C37BD4699
:100FEC0080BC7047BC00002080B483B000AF786038
:100FFC00064A7B6812F82330012B0CBF0123002317
:10100C00DBB218460C37BD4680BC7047BC000020D4
:10101C0080B400AF054B1B7C012B0CBF01230023BC
:10102C00DBB21846BD4680BC704700BFBC00002038
:10103C0080B400AF00BFBD4680BC7047FFF7F8FF1F
:10104C000B480C490C4A002302E0D458C45004331A
:10105C00C4188C42F9D3094A094C002301E01360EF
:10106C000432A242FBD301F005FBFFF7BDFD704734
:10107C0000000020300000200C2700083000002069
:10108C00E8000020FEE7000080B500AF084B1B68AD
:10109C00074A43F010031360032000F023F90F20DC
:1010AC0000F008F8FFF7C0FE0023184680BD00BF13
:1010BC000020024080B582B000AF7860124B1A68F5
:1010CC00124B1B7819464FF47A73B3FBF1F3B2FB56
:1010DC00F3F3184600F03BF90346002B01D0012333
:1010EC000EE07B680F2B0AD8002279684FF0FF3096
:1010FC0000F003F9064A7B681360002300E001232B
:10110C0018460837BD4680BD240000202C00002066
:10111C002800002080B400AF054B1B781A46054B05
:10112C001B681344034A136000BFBD4680BC704764
:10113C002C000020E400002080B400AF024B1B68A0
:10114C001846BD4680BC7047E400002080B485B0D2
:10115C0000AF78607B6803F00703FB600C4BDB6827
:10116C00BB60BA684FF6FF031340BB60FB681A0202
:10117C00BB68134343F0BF6343F40033BB60044AC2
:10118C00BB68D36000BF1437BD4680BC704700BF3E
:10119C0000ED00E080B400AF044BDB681B0A03F0E9
:1011AC0007031846BD4680BC704700BF00ED00E049
:1011BC0080B483B000AF0346FB7197F90730002B66
:1011CC000BDBFB7903F01F02064997F907305B092B
:1011DC00012000FA02F241F8232000BF0C37BD4673
:1011EC0080BC704700E100E080B483B000AF0346E0
:1011FC003960FB7197F90730002B0ADB3B68DAB2D8
:10120C000C4997F907301201D2B20B4483F8002332
:10121C000AE03B68DAB20849FB7903F00F03043BA0
:10122C001201D2B20B441A7600BF0C37BD4680BCFB
:10123C00704700BF00E100E000ED00E080B489B031
:10124C0000AFF860B9607A60FB6803F00703FB61DC
:10125C00FB69C3F10703042B28BF0423BB61FB69A3
:10126C000433062B02D9FB69033B00E000237B61AE
:10127C004FF0FF32BB6902FA03F3DA43BB681A4042
:10128C007B699A404FF0FF317B6901FA03F3D94334
:10129C007B680B40134318462437BD4680BC70470F
:1012AC0080B582B000AF78607B68013BB3F1807F82
:1012BC0001D301230FE00A4A7B68013B53600F21E5
:1012CC004FF0FF30FFF790FF054B00229A60044B64
:1012DC0007221A60002318460837BD4680BD00BFA0
:1012EC0010E000E080B582B000AF78607868FFF75E
:1012FC002DFF00BF0837BD4680BD80B586B000AF5E
:10130C000346B9607A60FB7300237B61FFF742FFF1
:10131C0078617A68B9687869FFF790FF024697F9A7
:10132C000F3011461846FFF75FFF00BF1837BD4658
:10133C0080BD80B582B000AF0346FB7197F90730D2
:10134C001846FFF735FF00BF0837BD4680BD80B596
:10135C0082B000AF78607868FFF7A2FF03461846AA
:10136C000837BD4680BD000080B48BB000AF7860FC
:10137C00396000237B6200233B6261E101227B6ABE
:10138C0002FA03F3FB613B681B68FA691340BB610B
:10139C00BA69FB699A4240F050813B685B68974A96
:1013AC0093425ED0954A934275D8954A934258D051
:1013BC00934A93426FD8934A934252D0914A9342A4
:1013CC0069D8914A93424CD08F4A934263D88F4A42
:1013DC00934246D08D4A93425DD8122B2AD8122BB9
:1013EC0059D801A252F823F06F14000849140008D0
:1013FC005B1400089D140008A3140008A314000833
:10140C00A3140008A3140008A3140008A3140008D4
:10141C00A3140008A3140008A3140008A3140008C4
:10142C00A3140008A3140008A31400085114000806
:10143C0065140008764A934213D02CE03B68DB68B5
:10144C003B6229E03B68DB6804333B6224E03B6889
:10145C00DB6808333B621FE03B68DB680C333B62A4
:10146C001AE03B689B68002B02D104233B6213E01B
:10147C003B689B68012B05D108233B627B68FA69AA
:10148C001A6109E008233B627B68FA695A6103E040
:10149C0000233B6200E000BFBB69FF2B01D87B68D7
:1014AC0001E07B6804337B61BB69FF2B02D87B6A4C
:1014BC009B0002E07B6A083B9B003B617B691A68DE
:1014CC000F213B6901FA03F3DB431A40396A3B698C
:1014DC0001FA03F31A437B691A603B685B6803F0FB
:1014EC008053002B00F0A9804A4B9B69494A43F07A
:1014FC0001039361474B9B6903F00103BB60BB681D
:10150C00454A7B6A9B08023352F82330FB607B6AA6
:10151C0003F003039B000F2202FA03F3DB43FA6888
:10152C001340FB607B683D4A93420DD07B683C4A7C
:10153C00934207D07B683B4A934201D1022304E0DB
:10154C00032302E0012300E000237A6A02F0030285
:10155C0092009340FA681343FB602F497B6A9B0807
:10156C000233FA6841F823203B685B6803F480136C
:10157C00002B06D02C4B9A682B49BB6913438B600C
:10158C0006E0294B9A68BB69DB43274913408B6003
:10159C003B685B6803F40013002B06D0224BDA681F
:1015AC002149BB691343CB6006E01F4BDA68BB696A
:1015BC00DB431D491340CB603B685B6803F400338D
:1015CC00002B06D0184B5A681749BB6913434B6064
:1015DC0006E0154B5A68BB69DB43134913404B605B
:1015EC003B685B6803F48033002B1FD00E4B1A68EA
:1015FC000D49BB6913430B601FE000BF00003210A4
:10160C000000311000002210000021100000121008
:10161C0000001110001002400000014000080140C1
:10162C00000C014000100140000401400B4B1A68F3
:10163C00BB69DB43094913400B607B6A01337B6256
:10164C003B681A687B6A22FA03F3002B7FF496AE90
:10165C0000BF00BF2C37BD4680BC70470004014062
:10166C0080B485B000AF78600B467B807B689A684D
:10167C007B881340002B02D00123FB7301E0002375
:10168C00FB73FB7B18461437BD4680BC704780B497
:10169C0083B000AF78600B467B8013467B707B7801
:1016AC00002B03D07A887B681A6103E07B881A04CC
:1016BC007B681A6100BF0C37BD4680BC704780B494
:1016CC0085B000AF78600B467B807B68DB68FB6085
:1016DC007A88FB6813401A04FB68D9437B880B405B
:1016EC001A437B681A6100BF1437BD4680BC704733
:1016FC0080B586B000AF78607B68002B01D10123E8
:10170C0072E27B681B6803F00103002B00F08780FA
:10171C00924B5B6803F00C03042B0CD08F4B5B6873
:10172C0003F00C03082B12D18C4B5B6803F4803351
:10173C00B3F5803F0BD1894B1B6803F40033002BAE
:10174C006CD07B685B68002B68D101234CE27B6812
:10175C005B68B3F5803F06D1804B1B687F4A43F42E
:10176C00803313602EE07B685B68002B0CD17B4BC5
:10177C001B687A4A23F480331360784B1B68774AD2
:10178C0023F4802313601DE07B685B68B3F5A02F06
:10179C000CD1724B1B68714A43F4802313606F4B5E
:1017AC001B686E4A43F4803313600BE06B4B1B6871
:1017BC006A4A23F480331360684B1B68674A23F42E
:1017CC00802313607B685B68002B13D0FFF7B4FC9D
:1017DC00386108E0FFF7B0FC02463B69D31A642B72
:1017EC0001D9032300E25D4B1B6803F40033002B8B
:1017FC00F0D014E0FFF7A0FC386108E0FFF79CFC88
:10180C0002463B69D31A642B01D90323ECE1534BF9
:10181C001B6803F40033002BF0D100E000BF7B68A1
:10182C001B6803F00203002B63D04C4B5B6803F086
:10183C000C03002B0BD0494B5B6803F00C03082BFB
:10184C001CD1464B5B6803F48033002B16D1434B01
:10185C001B6803F00203002B05D07B681B69012B6E
:10186C0001D00123C0E13D4B1B6823F0F8027B68DB
:10187C005B69DB00394913430B603AE07B681B69F9
:10188C00002B20D0364B01221A60FFF755FC386133
:10189C0008E0FFF751FC02463B69D31A022B01D931
:1018AC000323A1E12D4B1B6803F00203002BF0D0A6
:1018BC002A4B1B6823F0F8027B685B69DB00274925
:1018CC0013430B6015E0264B00221A60FFF734FC23
:1018DC00386108E0FFF730FC02463B69D31A022B53
:1018EC0001D9032380E11D4B1B6803F00203002B7D
:1018FC00F0D17B681B6803F00803002B3AD07B689F
:10190C009B69002B19D0174B01221A60FFF714FCAE
:10191C00386108E0FFF710FC02463B69D31A022B32
:10192C0001D9032360E10D4B5B6A03F00203002B2A
:10193C00F0D0012000F09CFA1CE00A4B00221A6047
:10194C00FFF7FAFB38610FE0FFF7F6FB02463B6945
:10195C00D31A022B08D9032346E100BF0010024022
:10196C000000424280044242924B5B6A03F0020345
:10197C00002BE9D17B681B6803F00403002B00F0FB
:10198C00A6800023FB758B4BDB6903F08053002B87
:10199C000DD1884BDB69874A43F08053D361854B6B
:1019AC00DB6903F08053BB60BB680123FB75824B82
:1019BC001B6803F48073002B18D17F4B1B687E4A85
:1019CC0043F480731360FFF7B7FB386108E0FFF74F
:1019DC00B3FB02463B69D31A642B01D9032303E101
:1019EC00754B1B6803F48073002BF0D07B68DB68AD
:1019FC00012B06D16F4B1B6A6E4A43F00103136235
:101A0C002DE07B68DB68002B0CD16A4B1B6A694AA2
:101A1C0023F001031362674B1B6A664A23F004032D
:101A2C0013621CE07B68DB68052B0CD1614B1B6AD5
:101A3C00604A43F0040313625E4B1B6A5D4A43F039
:101A4C00010313620BE05B4B1B6A5A4A23F0010340
:101A5C001362584B1B6A574A23F0040313627B68CA
:101A6C00DB68002B15D0FFF767FB38610AE0FFF746
:101A7C0063FB02463B69D31A41F28832934201D987
:101A8C000323B1E04B4B1B6A03F00203002BEED097
:101A9C0014E0FFF751FB38610AE0FFF74DFB0246FB
:101AAC003B69D31A41F28832934201D903239BE05C
:101ABC00404B1B6A03F00203002BEED1FB7D012B84
:101ACC0005D13C4BDB693B4A23F08053D3617B68E7
:101ADC00DB69002B00F08780364B5B6803F00C034E
:101AEC00082B61D07B68DB69022B46D1334B00227B
:101AFC001A60FFF721FB386108E0FFF71DFB024677
:101B0C003B69D31A022B01D903236DE0294B1B68C7
:101B1C0003F00073002BF0D17B681B6AB3F5803F98
:101B2C0008D1244B5B6823F400327B689B68214905
:101B3C0013434B601F4B5B6823F474127B68196A68
:101B4C007B685B6A0B431B4913434B601B4B0122A5
:101B5C001A60FFF7F1FA386108E0FFF7EDFA024678
:101B6C003B69D31A022B01D903233DE0114B1B68AF
:101B7C0003F00073002BF0D035E0104B00221A60FC
:101B8C00FFF7DAFA386108E0FFF7D6FA02463B694C
:101B9C00D31A022B01D9032326E0064B1B6803F052
:101BAC000073002BF0D11EE07B68DB69012B07D1A1
:101BBC00012319E000100240007000406000424216
:101BCC000B4B5B68FB60FB6803F480327B681B6A21
:101BDC009A4206D1FB6803F470127B685B6A9A42E6
:101BEC0001D0012300E0002318461837BD4680BD04
:101BFC000010024080B584B000AF786039607B681B
:101C0C00002B01D10123D0E06A4B1B6803F00703C2
:101C1C003A689A4210D9674B1B6823F00702654952
:101C2C003B6813430B60634B1B6803F007033A6874
:101C3C009A4201D00123B8E07B681B6803F00203D1
:101C4C00002B20D07B681B6803F00403002B05D00D
:101C5C00594B5B68584A43F4E06353607B681B68DC
:101C6C0003F00803002B05D0534B5B68524A43F436
:101C7C0060535360504B5B6823F0F0027B689B68A9
:101C8C004D4913434B607B681B6803F00103002B29
:101C9C0040D07B685B68012B07D1474B1B6803F472
:101CAC000033002B15D101237FE07B685B68022B8E
:101CBC0007D1414B1B6803F00073002B09D10123A2
:101CCC0073E03D4B1B6803F00203002B01D1012391
:101CDC006BE0394B5B6823F003027B685B68364929
:101CEC0013434B60FFF728FAF8600AE0FFF724FA79
:101CFC000246FB68D31A41F28832934201D903237E
:101D0C0053E02D4B5B6803F00C027B685B689B0017
:101D1C009A42EBD1274B1B6803F007033A689A42AF
:101D2C0010D2244B1B6823F0070222493B68134353
:101D3C000B60204B1B6803F007033A689A4201D0F2
:101D4C00012332E07B681B6803F00403002B08D0EE
:101D5C00194B5B6823F4E0627B68DB68164913431C
:101D6C004B607B681B6803F00803002B09D0124BF7
:101D7C005B6823F460527B681B69DB000E491343DC
:101D8C004B6000F021F802460B4B5B681B0903F01B
:101D9C000F030A49CB5C22FA03F3094A1360094B7F
:101DAC001B681846FFF786F9002318461037BD4606
:101DBC0080BD00BF0020024000100240E026000859
:101DCC00240000202800002080B487B000AF00233E
:101DDC00FB600023BB6000237B6100237B6000233E
:101DEC003B611E4B5B68FB60FB6803F00C03042B30
:101DFC0002D0082B03D027E0194B3B6127E0FB688E
:101E0C009B0C03F00F03174AD35C7B60FB6803F455
:101E1C008033002B10D0114B5B685B0C03F001037B
:101E2C00114AD35CBB607B680D4A03FB02F2BB68B2
:101E3C00B2FBF3F37B6104E07B680C4A02FB03F317
:101E4C007B617B693B6102E0054B3B6100BF3B69F9
:101E5C0018461C37BD4680BC704700BF00100240BE
:101E6C0000127A00F02600080027000800093D0047
:101E7C0080B485B000AF78600A4B1B680A4AA2FB9D
:101E8C0003235B0A7A6802FB03F3FB6000BFFB6869
:101E9C005A1EFA60002BF9D100BF00BF1437BD46A3
:101EAC0080BC704724000020D34D621080B582B0F6
:101EBC0000AF78607B68002B01D1012341E07B6887
:101ECC0093F83D30DBB2002B06D17B68002283F8FF
:101EDC003C207868FEF7DAFF7B68022283F83D200D
:101EEC007B681A687B6804331946104600F056FA72
:101EFC007B68012283F846207B68012283F83E2010
:101F0C007B68012283F83F207B68012283F8402004
:101F1C007B68012283F841207B68012283F84220F0
:101F2C007B68012283F843207B68012283F84420DC
:101F3C007B68012283F845207B68012283F83D20D1
:101F4C00002318460837BD4680BD000080B485B01C
:101F5C0000AF78607B6893F83D30DBB2012B01D089
:101F6C00012335E07B68022283F83D207B681B68E7
:101F7C00DA687B681B6842F00102DA607B681B68D8
:101F8C00164A934209D07B681B68B3F1804F04D08A
:101F9C007B681B68124A934211D17B681B689B6853
:101FAC0003F00703FB60FB68062B10D07B681B68F3
:101FBC001A687B681B6842F001021A6007E07B68B4
:101FCC001B681A687B681B6842F001021A600023C8
:101FDC0018461437BD4680BC704700BF002C01402A
:101FEC000004004080B584B000AF78607B681B684B
:101FFC00DB68FB607B681B681B69BB60BB6803F01C
:10200C000203002B20D0FB6803F00203002B1BD033
:10201C007B681B686FF002021A617B6801221A77D9
:10202C007B681B689B6903F00303002B03D0786863
:10203C0000F098F905E0786800F08BF9786800F00A
:10204C009AF97B6800221A77BB6803F00403002B13
:10205C0020D0FB6803F00403002B1BD07B681B68AB
:10206C006FF004021A617B6802221A777B681B6886
:10207C009B6903F44073002B03D0786800F072F96D
:10208C0005E0786800F065F9786800F074F97B6811
:10209C0000221A77BB6803F00803002B20D0FB68E2
:1020AC0003F00803002B1BD07B681B686FF0080241
:1020BC001A617B6804221A777B681B68DB6903F062
:1020CC000303002B03D0786800F04CF905E0786826
:1020DC0000F03FF9786800F04EF97B6800221A771F
:1020EC00BB6803F01003002B20D0FB6803F0100337
:1020FC00002B1BD07B681B686FF010021A617B6889
:10210C0008221A777B681B68DB6903F44073002B89
:10211C0003D0786800F026F905E0786800F019F92A
:10212C00786800F028F97B6800221A77BB6803F006
:10213C000103002B0CD0FB6803F00103002B07D02C
:10214C007B681B686FF001021A617868FEF73AFD34
:10215C00BB6803F08003002B0CD0FB6803F08003FA
:10216C00002B07D07B681B686FF080021A617868BF
:10217C0000F06FFABB6803F04003002B0CD0FB6837
:10218C0003F04003002B07D07B681B686FF0400204
:10219C001A61786800F0F8F8BB6803F02003002B94
:1021AC000CD0FB6803F02003002B07D07B681B6866
:1021BC006FF020021A61786800F042FA00BF103705
:1021CC00BD4680BD80B584B000AF78603960002317
:1021DC00FB737B6893F83C30012B01D10223B4E0F4
:1021EC007B68012283F83C207B68022283F83D2027
:1021FC007B681B689B68BB60BB6823F07703BB6084
:10220C00BB6823F47F43BB607B681B68BA689A6029
:10221C003B681B68B3F5005F3ED0B3F5005F00F27E
:10222C008780B3F5805F00F08680B3F5805F7FD840
:10223C00702B1AD0702B7BD8602B50D0602B77D89A
:10224C00502B3CD0502B73D8402B58D0402B6FD8F0
:10225C00302B64D0302B6BD8202B60D0202B67D840
:10226C00002B5CD0102B5AD062E07B6818683B685E
:10227C0099683B685A683B68DB6800F06AF97B68D0
:10228C001B689B68BB60BB6843F07703BB607B68D3
:10229C001B68BA689A604FE07B6818683B6899685D
:1022AC003B685A683B68DB6800F053F97B681B6835
:1022BC009A687B681B6842F480429A603CE07B68B9
:1022CC0018683B6859683B68DB681A4600F0CAF826
:1022DC007B681B685021184600F021F92CE07B68C4
:1022EC0018683B6859683B68DB681A4600F0E8F8E8
:1022FC007B681B686021184600F011F91CE07B68B4
:10230C0018683B6859683B68DB681A4600F0AAF805
:10231C007B681B684021184600F001F90CE07B68D3
:10232C001A683B681B681946104600F0F8F803E081
:10233C000123FB7300E000BF7B68012283F83D2082
:10234C007B68002283F83C20FB7B18461037BD4687
:10235C0080BD80B483B000AF786000BF0C37BD4641
:10236C0080BC704780B483B000AF786000BF0C377E
:10237C00BD4680BC704780B483B000AF786000BFAE
:10238C000C37BD4680BC704780B483B000AF78601A
:10239C0000BF0C37BD4680BC7047000080B485B0D0
:1023AC0000AF786039607B681B68FB607B682B4AE8
:1023BC00934207D07B68B3F1804F03D07B68284AE7
:1023CC00934208D1FB6823F07003FB603B685B68A9
:1023DC00FA681343FB607B68204A934207D07B6802
:1023EC00B3F1804F03D07B681D4A934208D1FB6840
:1023FC0023F44073FB603B68DB68FA681343FB60B3
:10240C00FB6823F080023B685B691343FB607B68CD
:10241C00FA681A603B689A687B68DA623B681A68EB
:10242C007B689A627B680D4A934203D13B681A69B8
:10243C007B681A637B6801225A617B681B6903F015
:10244C000103002B05D07B681B6923F001027B681C
:10245C001A6100BF1437BD4680BC7047002C014088
:10246C000004004080B487B000AFF860B9607A60B7
:10247C00FB681B6A7B61FB681B6A23F00102FB682B
:10248C001A62FB689B693B613B6923F0F0033B617B
:10249C007B681B013A6913433B617B6923F00A0398
:1024AC007B617A69BB6813437B61FB683A699A610B
:1024BC00FB687A691A6200BF1C37BD4680BC704746
:1024CC0080B487B000AFF860B9607A60FB681B6AB3
:1024DC007B61FB681B6A23F01002FB681A62FB68C5
:1024EC009B693B613B6923F470433B617B681B0335
:1024FC003A6913433B617B6923F0A0037B61BB68A2
:10250C001B017A6913437B61FB683A699A61FB682A
:10251C007A691A6200BF1C37BD4680BC704780B414
:10252C0085B000AF786039607B689B68FB60FB68A6
:10253C0023F07003FB603A68FB68134343F0070316
:10254C00FB607B68FA689A6000BF1437BD4680BC9C
:10255C00704780B487B000AFF860B9607A603B60B8
:10256C00FB689B687B617B6923F47F437B613B68E1
:10257C001A027B681A43BB6813437A6913437B6165
:10258C00FB687A699A6000BF1C37BD4680BC7047F7
:10259C0080B485B000AF786039607B6893F83C30CC
:1025AC00012B01D1022341E07B68012283F83C20FE
:1025BC007B68022283F83D207B681B685B68FB60AC
:1025CC007B681B689B68BB60FB6823F07003FB6037
:1025DC003B681B68FA681343FB607B681B68FA68EE
:1025EC005A607B681B68144A934209D07B681B684D
:1025FC00B3F1804F04D07B681B68104A93420CD116
:10260C00BB6823F08003BB603B685B68BA6813430C
:10261C00BB607B681B68BA689A607B68012283F890
:10262C003D207B68002283F83C2000231846143799
:10263C00BD4680BC704700BF002C01400004004028
:10264C0080B483B000AF786000BF0C37BD4680BC4F
:10265C00704780B483B000AF786000BF0C37BD46C4
:10266C0080BC704703460244934200D1704703F884
:10267C00011BF9E770B500260C4D0D4C641BA41022
:10268C00A64209D100F01AF800260A4D0A4C641B28
:10269C00A410A64205D170BD55F8043B98470136ED
:1026AC00EEE755F8043B98470136F2E7042700089B
:1026BC00042700080427000808270008F8B500BF05
:1026CC00F8BC08BC9E467047F8B500BFF8BC08BC07
:0426DC009E4670475F
:1026E00000000000000000000102030406070809C2
:1026F00002030405060708090A0B0C0D0E0F101043
:0427000001020000D2
:042704003101000897
:042708000D010008B7
:10270C00050203010101010000080140000801401D
:10271C000008014002000400080000001000200026
:10272C004000800000127A00100000000100000040
:040000050800104996
:00000001FF
